:020000040000fa
:080000000002040000000000f2
:020000040000fa
:10000800580300005803000058030000580300007c
:10001800580300005803000058030000580300006c
:100028001c03000058030000580300009002000061
:10003800580300005803000058030000a402000001
:10004800b802000058030000ea130000080300008b
:10005800580300005803000058030000580300002c
:10006800580300005803000058030000580300001c
:100078003003000058030000580300005803000034
:10008800580300005803000058030000cc02000089
:10009800e002000044030000f402000058030000de
:1000a80058030000580300005803000058030000dc
:1000b80058030000580300005803000058030000cc
:1000c80058030000580300005803000058030000bc
:1000d80058030000580300005803000058030000ac
:1000e800580300005803000058030000580300009c
:1000f800580300005803000058030000580300008c
:10010800580300005803000058030000580300007b
:10011800580300005803000058030000580300006b
:10012800580300005803000058030000580300005b
:10013800580300005803000058030000580300004b
:10014800580300005803000058030000580300003b
:10015800580300005803000058030000580300002b
:10016800580300005803000058030000580300001b
:10017800580300005803000058030000580300000b
:1001880058030000580300005803000058030000fb
:1001980058030000580300005803000058030000eb
:1001a80058030000580300005803000058030000db
:1001b80058030000580300005803000058030000cb
:1001c80058030000580300005803000058030000bb
:1001d80058030000580300005803000058030000ab
:1001e800580300005803000058030000580300009b
:0801f800580300005803000049
:020000040000fa
:10020800580300005803000058030000580300007a
:10021800580300005803000058030000580300006a
:100228001c0300005803000058030000900200005f
:10023800580300005803000058030000a4020000ff
:10024800b802000058030000ea1300000803000089
:10025800580300005803000058030000580300002a
:10026800580300005803000058030000580300001a
:100278003003000058030000580300005803000032
:10028800580300005803000058030000cc02000087
:10029800e002000044030000f402000058030000dc
:1002a80058030000580300005803000058030000da
:1002b80058030000580300005803000058030000ca
:1002c80058030000580300005803000058030000ba
:1002d80058030000580300005803000058030000aa
:1002e800580300005803000058030000580300009a
:1002f800580300005803000058030000580300008a
:100308005803000058030000580300005803000079
:100318005803000058030000580300005803000069
:100328005803000058030000580300005803000059
:100338005803000058030000580300005803000049
:100348005803000058030000580300005803000039
:100358005803000058030000580300005803000029
:100368005803000058030000580300005803000019
:100378005803000058030000580300005803000009
:1003880058030000580300005803000058030000f9
:1003980058030000580300005803000058030000e9
:1003a80058030000580300005803000058030000d9
:1003b80058030000580300005803000058030000c9
:1003c80058030000580300005803000058030000b9
:1003d80058030000580300005803000058030000a9
:1003e8005803000058030000580300005803000099
:0803f800580300005803000047
:020000040000fa
:10040000ef9020000e7f22000e0188000000000007
:100410000c00070000472100010020001100070028
:10042000000020000000e000020032000000020096
:1004300000000000d2150200000000000040da00b9
:100440000000fe004440a900601720000000e0000a
:100450000300320000002000a00188004440a800f2
:100460000000060091018800800078000000eb0089
:1004700015003700e280400032a0b4009101ba00bc
:10048000e280400032a0b4009102ba00e280400055
:1004900032a0b4000002eb00472bde00f507b200eb
:1004a000602ce10004003a000059eb008301e900f0
:1004b000fdff3e00040037006128e100010032002a
:1004c0000082eb00040007001101ba000200e00006
:1004d000e8ff3a00000006003159ba008301e90044
:1004e0000c0032002159ba008301e90008003200f3
:1004f0000400e00003003a00e280400032a0b400b3
:10050000f5ff370011d9ba008301e900faff3a007c
:100510008100e800e180400032a0b4000000060045
:100520003400f800881f780008002000a801880027
:100530004f0478000000fa008460a9000080fa00ef
:100540003400f900004006003400f800881f7800ed
:1005500008002000a80188004f0478000000fa007d
:1005600084e0a9000080fa003400f9000040060091
:100570003400f800881f780008002000a8018800d7
:100580004f0478000000fa008500a9000080fa00fe
:100590003400f900004006003400f800881f78009d
:1005a00008002000a80188004f0478000000fa002d
:1005b0008760a9000080fa003400f90000400600be
:1005c0003400f800881f780008002000a801880087
:1005d0004f0478000000fa008780a9000080fa002c
:1005e0003400f900004006003400f800881f78004d
:1005f00008002000a80188004f0478000000fa00dd
:1006000087c0a9000080fa003400f900004006000d
:100610003400f800881f780008002000a801880036
:100620004f0478000000fa008560a9000080fa00fd
:100630003400f900004006003400f800881f7800fc
:1006400008002000a80188004f0478000000fa008c
:100650008400a9000080fa003400f9000040060080
:100660003400f800881f780008002000a8018800e6
:100670004f0478000000fa008680a9000080fa008c
:100680003400f900004006003400f800881f7800ac
:1006900008002000a80188004f0478000000fa003c
:1006a00087a0a9000080fa003400f900004006008d
:1006b0000040da000000fe008540a90067016000ec
:1006c0004811dd0043058000f18f2f00818061001b
:1006d000828070004105880068006000c300de0071
:1006e000e1806000ca08dd00a004800000a0a10035
:1006f00001007000a00488000000060010128800ad
:100700002112880002128800000006008460a900ff
:10071000670160004c11dd0023058000f1ff280017
:10072000818061008280700021058800680060007f
:10073000a10480000130a10080807000a104880025
:100740000000060084e0a900670160004c11dd0094
:1007500033058000f1ff28008180610082807000f5
:100760003105880068006000c300de00e1806000a1
:10077000c708dd00a00480000070a1000100700027
:10078000a0048800000006008500a9006701600041
:100790004305800081ff2f0081806100828070000e
:1007a0004105880068006000c300de00e180600051
:1007b000c808dd00a00480000080a10001007000d6
:1007c000a0048800000006008500a9006701600001
:1007d0004305800081ff2f008180610082807000ce
:1007e0004105880068006000c300de00e180600011
:1007f000c808dd00a00480000080a1000100700096
:10080000a0048800000006008760a900670160005e
:100810004c11dd0083058000f1ff2800818061001c
:10082000828070008105880068006000c300de00df
:10083000e1806000cb08dd00b004800000b0a100c2
:1008400001007000b0048800000006008780a90045
:10085000670160009305800081ff2f0081806100a7
:10086000828070009105880068006000c300de008f
:10087000e1806000cc08dd00b004800000c0a10071
:1008800001007000b0048800000006009780a900f5
:10089000670160009305800081ff2f008180610067
:1008a000828070009105880068006000c300de004f
:1008b000e1806000cc08dd00b004800000c0a10031
:1008c00001007000b0048800000006000021ef0065
:1008d0001108880020088800000006000621ef00ab
:1008e00061088800800888001061a90000000600e7
:1008f0008000eb00310888005108880062088800f9
:1009000073088800800888001061a80000000600b5
:100910000a21ef0071088800900888000000060096
:100920001421ef00d1088800f00888001e61a9009a
:10093000000006008000eb00a1088800c1088800c4
:10094000d2088800e3088800f00888001e61a8002b
:10095000000006001821ef00e10888000009880067
:10096000000006008560a9008580a900670160007d
:100970004c11dd0043058000f1ff280081806100fb
:100980008280700041058800000178000207b200f3
:100990004411de005305800081ff2f00818061003b
:1009a0008280700051058800680160004311de00fc
:1009b000610161004b11dd00a104800001b0a100c4
:1009c00082807000a10488000008b2004700de00a9
:1009d000610060004c00dd00a104800001c0a100a6
:1009e00080807000a10488000000060087c0a90074
:1009f00087e0a900670160004811dd0093058000d1
:100a0000f18f2f0081806100828070009105880045
:100a1000000178000207b2004811dd009305800054
:100a2000f1ff2800818061008280700091058800bc
:100a3000680160004311de00610161004e11dd00bc
:100a4000b104800001e0a10082807000b104880040
:100a50000008b2004700de00610060004f00dd00ca
:100a6000b104800001f0a10080807000b104880012
:100a70000000060042118800001188001111880052
:100a800000000600c21188008011880091118800c2
:100a900000000600889fbe000004be00060037006c
:100aa0000000fb00890078003b000700e10f4000d8
:100ab000050032000804e80018407800e04f5000bc
:100ac000f7ff3a000000eb004f04be0000000600f4
:100ad000881f7800c18e2000eeff07000004780018
:100ae000c18e2000a00020002b0007000800780025
:100af0004f04780000000600000178000100370074
:100b00000201e8008041eb0092cf1100fcff3a00a7
:100b1000b141780003597800e0cf5100fcff3a0062
:100b2000000006000c00fa00889fbe000004780058
:100b3000f0ff2700d0bf9f008004eb0099bf9f000b
:100b400088bf9f00a8bf9f00200c2000b0bf9f005f
:100b500078815700cfb09700708057001f020700c0
:100b60000fb89700094878008fb8970008805000a8
:100b70004f04be000080fa00000006000000fa00ea
:100b800068815700cfb89700c08e2000130207007d
:100b90000080fa0000000600889fbe000104780073
:100ba000b8009000628160008084eb003c0032005d
:100bb000810178000320b2001801900002003a0081
:100bc000e00f510036003a000190a0003104980077
:100bd00080047800f90fb200e00f510002003a00e3
:100be00028009000000c7800ea8f540006003a00bc
:100bf000010078000008b20003003a008800780085
:100c0000d0002000e4ff070018009000d8009000fa
:100c1000810f50000b0032000000e8001004980023
:100c20001800780009487800000ce80010c0b300f4
:100c30006190200080487800ea8f540018003a0044
:100c40000500370088007800094078001700070089
:100c50008004780012003700380090000010b200c5
:100c60000f00320018019000a8009000480090008a
:100c70005000070098009000810f500004003200df
:100c8000380090000003b300300498008084eb002b
:100c90000000eb001004980028009000000c780081
:100ca000090078004f04be00000006000200fa00b0
:100cb000889fbe00a0ff9f000104780038009000cc
:100cc000800078000104b20033003a00e2006000c6
:100cd00005003a000003b3003004980011049800a6
:100ce0000080eb002e003700d8049000e08f540005
:100cf00006003a0012002000e680570048009000ed
:100d00002c0007001904980023003700a800900069
:100d1000e08f500008003a009190200021049800d4
:100d2000010c780021002000510498001104980063
:100d30000030a0003004980018019000a800900036
:100d4000480090001b000700280090008080eb0006
:100d500011049800aff8970001487800000ce800f3
:100d60002ff89700ea4f50000b003a00380090002f
:100d70000010b2000800320018019000a800900096
:100d8000480090000b0007000000eb0010049800e2
:100d9000a8009000010c7800aff897000100fb005c
:100da0004f04be000080fa000000060000c0da0018
:100db000000006000a00fa00e20f500021003e0089
:100dc00060488000e10f50000600320085232000bb
:100dd000442320002323200000232000e08f520022
:100de00004003a0085222000442220002322200013
:100df00000222000060028009003630002003a0051
:100e0000870a78001008730000402000130060007b
:100e100001003a0013a0a00002007800060037008d
:100e2000930278000510b200fdff3200b102fb0012
:100e3000050a78000000e900e00f5000f8ff3a00d2
:100e40000800370033002000b3bf9f00c0bf9f00e1
:100e5000d1bf9f00e2bf9f006a805700d3ff070009
:100e60006fb99700020078000080fa0000000600c9
:100e70006022b800060220000000d0008180d2006d
:100e80000482d2008582d2000000a000020252003b
:100e900083825a00030031000202420083824a002a
:100ea0000000a1000603e900f3ff3a00000006007d
:100eb000020ab900001bb9000200b800810042001c
:100ec0008100430000000600889fbe008a9fbe008c
:100ed0003004be002005be000404440085844c009c
:100ee00006054d0087854d000898be000a90be009b
:100ef0000440e10005c8e10006d0e10007d8e100a8
:100f000002003100680040001008e8004f05be00f4
:100f10004f04be0000000600889fbe008a9fbe00ee
:100f20008c1f7800000678003c04be002c05be0033
:100f30000400540085805c0006015d0087815d002f
:100f4000009ebe00029ebe00100020000440e10092
:100f500005c8e10006d0e10007d8e1000100390032
:100f60000000eb001c0e10004f0678004f05be007d
:100f70004f04be00000006001200fa00889fbe0069
:100f80008a9fbe008c9fbe000205be000004be000a
:100f9000e4b79f00f5b79f0086bf9f0097bf9f00f3
:100fa0000000eb00d0b79f00c0b79f00b0b79f0014
:100fb000a0b79f0090b79f0000067800fd032000b7
:100fc000dfb197004fb0970003814100bfb0970099
:100fd000e08f510004003d00290007007e8057008b
:100fe000b9ff070003003700250007007e80570087
:100ff000c9ff0700dfb09700e08f50000700350001
:1010000014002000050020006033b80008047200be
:10101000898472000a0573008b8573000c06e80052
:101020008d0f5600e6ff3400e08f500006003d00b3
:101030006fb29700ffb297000fbb97009fbb97005e
:101040007e805700a0ff07005fa89700e00f5000c8
:1010500004003a001fb49700afb497003fb5970063
:10106000cfb597000800be000a01be004f06be00c3
:101070004f05be004f04be000080fa0000000600cd
:10108000cf01de0002817100b2b79f004f09de0080
:101090000000400000007100a0b79f000fb0970053
:1010a0004f01de00818040008100710091b79f00f8
:1010b0007faa9700cf20de00000040000080700073
:1010c00080b79f000800be000a01be004f18de0076
:1010d0000402420000027200f4af9f0008044400c2
:1010e00089844c000a054d008b854d004fb2970056
:1010f000dfb297006fb39700ffb3970000000600c0
:10110000881f780018002000881f78009aff0700c9
:101110008f87e9004f04780000000600801feb0075
:1011200095ff07008f87e90000000600889fbe003a
:101130008a9fbe008c1f7800e00f5000e08f58009f
:10114000e00f5900e08f59000f003d006044b800e7
:101150006055b8000000540081805c0002015d0011
:1011600083815d001c0020000820e10009a8e10047
:101170000ab0e1000bb8e1000d003d0019000700c6
:101180000006eb000a0037000006eb00e00f5200fb
:10119000e08f5a00e00f5b00e08f5b0004003d0031
:1011a0006044b8006055b8000e0007001c00200025
:1011b000d3ff0700e00f5600060032006022b8009f
:1011c0006033b8000000520081805a0002015b00c9
:1011d00083815b004f0678004f05be004f04be00c0
:1011e000000006000402540085825c0006035d00d6
:1011f00087835d0000000600889fbe008a9fbe00b6
:101200008c1f7800e00f5000e08f5800e00f59006d
:10121000e08f59000d003d006044b8006055b800f3
:101220000000540081805c0002015d0083815d004c
:101230001c0020000820e10009a8e1000ab0e1003c
:101240000bb8e1000d003d00080037000006eb0080
:10125000e00f5200e08f5a00e00f5b00e08f5b0070
:1012600006003d006044b8006055b8000402540018
:1012700085825c0006035d0087835d00a7ff070091
:10128000e00f5600060032006022b8006033b8005c
:101290000000520081805a0002015b0083815b00e4
:1012a0004f0678004f05be004f04be000000060048
:1012b000889fbe008a9fbe008c1f78000006eb004e
:1012c000e00f5000e08f5800e00f5900e08f590008
:1012d00007003d006044b8006055b80000005400ad
:1012e00081805c0002015d0083815d001c002000a4
:1012f000e00f5200e08f5a00e00f5b00e08f5b00d0
:1013000007003d006044b8006055b8000402540076
:1013100085825c0006035d0087835d000c00a200ef
:101320000c000700e00f5600060032006022b800f3
:101330006033b8000000520081805a0002015b0057
:1013400083815b004f0678004f05be004f04be004e
:1013500000000600889fbe008a9fbe008c9fbe00d2
:101360000404b8000506b8008904460060854e00f4
:101370000606b8000a054600e0854e000706b800dc
:101380008b054600040eb800890446000a854e000d
:10139000e0854d00050eb8000a0546008b854e001d
:1013a000060eb8008b0546000416b8000a05460074
:1013b0008b854e000516b8008b054600041eb8004c
:1013c0008b0546000800be000a01be004f06be00a5
:1013d0004f05be004f04be00000006000f04b00021
:1013e000889fbe008a9fbe008c9fbe008e1f780023
:1013f000c0b79f00d1af9f00a2b79f000000eb00d5
:10140000c0033700dfa897008100e800d1af9f003c
:1014100052c2b30082cf520006003a000007eb0030
:1014200006c3b30003c2b300b1c2b3005fa8970004
:1014300014003700cfb19700330190000204b200ce
:101440000500320003027800940178008549780095
:10145000030ae800070037000501fb00cfb0970042
:1014600002007800ccfd070000017800e10f410088
:10147000a5033200bfb297008502e800b5b79f0010
:10148000a103370090427800d7c2b30087cf520043
:101490000b0032000001e80087cf520005003c003d
:1014a00083cf52000900320081cf52000e003a0073
:1014b0000800370086cf52000b003a0007003700c3
:1014c0000e30a0000000e800eeff37000e00a00084
:1014d000030037000e10a000010037000e20a0000e
:1014e00002007800e7ff3700d0af9f00e2016700fd
:1014f000010032000e00a100e80167000100320087
:101500000e20a1008501fb000303b100e98f51000b
:101510000d003e00000020005fa997006a00b9009e
:101520000003b1009200fb0001004000d200fb006c
:101530000103b100e98f5000f8ff3600c0af9f00f3
:10154000d2af9f000c0037008004eb00c9af9f00b2
:10155000a3c2b30083cf520007003a002fb5970013
:10156000ca057800aab79f00cbaf9f005fa897007d
:101570000000e800d0af9f008000eb00e1af9f00cb
:10158000e3c2b3005fa9970092cf11001e003a009a
:101590000ee0a000e4c151000201e800d2af9f00bc
:1015a00012427800834f52000d003a00afb297000c
:1015b00045037800a5b79f00e6af9f00820378003f
:1015c0008703e80007017800100037006a00b900bf
:1015d0000003b100020040008301e8000200370070
:1015e0006fa89700dfa997001301fb0001fd2f00f2
:1015f00082804000e98f5000f4ff3600e0af9f008a
:1016000003017800010037005fa99700324278009b
:10161000c4779f00c8c6b300884f52002300320031
:10162000d2af9f000f003c0035c6b300854f52007b
:10163000a700320004003c00e04f520037033200a4
:1016400083c5b3000f00370043c6b300834f520079
:10165000c4003200e5c14100834f5200ba003a0095
:10166000c000370035c7b300854f52001a00320062
:1016700007003c00f3c6b300834f52001100320054
:101680008341e800834f5200af003a000f0037005b
:1016900053c7b300834f5200b1003200e3c1410091
:1016a000834f5200a8003a0009003700700067001d
:1016b0000100280001003a00010120000107770025
:1016c000d2ff37000e60a000a60037000e50a00029
:1016d0000e70a000a3003700afb49700c9027800d5
:1016e000a9b79f00d5b79f00e08f520002003a00d3
:1016f0008b8d2000dbb79f000000eb00e0b79f0060
:101700005fb09700efb097007fb197008fb9970057
:10171000010037008500e80081027800614278000e
:10172000e04f5200fbff3a00d0b79f00e1b79f00a7
:10173000f2b79f0083bf9f00efaa9700e08f52008f
:10174000050032006fb39700868f5200020031000f
:1017500085037800e7b79f00efb297000006eb0023
:101760004fac9700850f5400010036000506540069
:10177000680767002f003a008c01780008c2b300a8
:10178000cfb69700100037003d0090000004b20073
:10179000040032001d00780008487800800ee80040
:1017a000050037008d00780000022000fafc0700d9
:1017b000e10f400003003200bfb497008904e80045
:1017c000b9b79f008c0178000c06e900e08f51004a
:1017d000edff3a00170037003d0090000004b20012
:1017e000090032009d01780008017800324078003d
:1017f00080497800830ee80002047800e04f500032
:1018000008003a0010003700080178003200fb00a1
:10181000020478008d007800dffc0700e10f400033
:10182000090032003fb097000000e800b0b79f0009
:10183000050037005fb49700efb497007fb59700bd
:101840008fbd9700cfb69700090078008004e900ab
:10185000e00f5000e0ff3a00d8b79f00e9b79f00c3
:10186000fab79f008bbf9f00e00f5700a60232001f
:1018700011003700380090000004b200040032006c
:10188000180078000d487800000ce80005003700cb
:101890008800780000022000bffc0700e10f400034
:1018a00003003200bfb297008502e800b5b79f0081
:1018b0000e067800020037000dc2b3004fb4970047
:1018c0000c07e900e00f5600eaff3a008e023700ed
:1018d0002fb3970046047800a6b79f00cfc4de0060
:1018e000090578008a0578000802be000a03be00d8
:1018f0004822de004828dd0004027000c4779f0003
:101900007006670009003200e04f52000700320005
:10191000e14f420005003200d4779f00e8779f0036
:1019200021002000e1b79f0003003700d8779f0017
:1019300012002000e2b79f0053fb2f008381470075
:10194000d3b79f007cff370044fb2f000482470081
:10195000d4b79f0015002000e5b79f0076ff370041
:101960000e0cb3000e007800000cb2003b003a00f1
:10197000e00f570005003d002fb097004005be0066
:101980004004be00a0b79f000f0037007000670042
:10199000120032002fb297004401be00a4b79f008e
:1019a000e29f9f00f39f9f00140090004f80de0095
:1019b00080a79f0090a79f006f9c9700ff9c9700b7
:1019c0000fa597009fa59700d8b79f00e9b79f0084
:1019d000fab79f008bbf9f000b003700afb4970092
:1019e00049027800a9b79f0004007800cf80de008c
:1019f0000101780082017800d0b79f00e1b79f0015
:101a0000f2b79f0083bf9f005fb29700efb29700cd
:101a10007fb397008fbb9700e00f5200e08f5a0012
:101a2000e00f5b00e08f5b0032003d003e00b30042
:101a30006022b8006033b8005fb49700efb497003d
:101a40007fb597008fbd97000804520089845a0023
:101a50000a055b008b855b0022003700e00f570012
:101a600005003d002fb297004401be004400be00b7
:101a7000a4b79f000f00370070006700120032000b
:101a80002fb497004803be00a8b79f00e6a79f00a9
:101a9000f7a79f008004eb0089af9f000005eb00d3
:101aa0009aaf9f006fa09700ffa097000fa9970023
:101ab0009fa99700d0b79f00e1b79f00f2b79f00a2
:101ac00083bf9f000b003700afb097004102780042
:101ad000a1b79f0004047800090020000a0020003c
:101ae0000b002000d8b79f00e9b79f00fab79f000e
:101af0008bbf9f00efac9700e08f54000d003a00c1
:101b00001a002000eaaf9f005fb09700efb0970087
:101b10007fb197008fb99700e00f5000e08f580019
:101b2000e00f5900e08f5900020032008000eb0006
:101b3000e1af9f000e017800020cb200b2af9f002f
:101b400005042000850f51003f00320003003c00d7
:101b5000e00f510008003200560037000408200052
:101b6000bfa99700848f51001b003200040c200095
:101b7000848f51004f003a0013c0b300c3779f0019
:101b800061812000100037000200fb004300dd00ef
:101b9000008040003002be002003be005fb497000a
:101ba000efb497007fb597008fbd97000440e10028
:101bb00005c8e10006d0e10007d8e1003d0039008a
:101bc0000241e800c2779f004f719700f44f510027
:101bd000edff3a003700370013c0b300c3779f0012
:101be00004012000050020006033b8001200370017
:101bf0005fb49700efb497007fb597008fbd970053
:101c00000440e10005c8e10006d0e10007d8e1008a
:101c100028003900490020000402d0008582d2004b
:101c20000683d2008783d2008904e900faff3a00d4
:101c30000040e800c0779f004f709700f04f5000c1
:101c4000ebff3a001b00370013c0b300c3779f00bf
:101c500084002000050020006033b8001200370027
:101c60005fb49700efb497007fb597008fbd9700e2
:101c70000440e10005c8e10006d0e10007d8e1001a
:101c80000c003900390020000402d0008582d20007
:101c90000683d2008783d2008904e900faff3a0064
:101ca0000040e800c0779f004f709700f54f50004c
:101cb000ebff3a004f7597008a02fb00efad9700eb
:101cc0008b8f520002003d00cb779f00040037004d
:101cd0006fa89700850f500001003d00e5af9f0001
:101ce000cfa89700e08f5000040032006302670025
:101cf000020032008100e900c1af9f00040024000f
:101d000004026700090032004fa99700efa997006d
:101d1000830f51000300340003015100c2af9f0044
:101d2000020037000002eb00c4af9f004f73970022
:101d30008602fb008003eb00a7af9f004fac97002b
:101d4000850f54000200340085025400a5af9f00a7
:101d5000640267004c003200e20267006103670022
:101d6000e08f52001b003200cfb497003902900080
:101d70000404b2000900320099037800b5c2b30030
:101d8000e00f53000100320085c2e800854b780067
:101d90004fb59700070de8000a003700d502200074
:101da000e00f530001003a008582e900cfb09700b0
:101db0000500780078fb070000027800e10f420080
:101dc00018003200bfb597008b05e800bbb79f0035
:101dd00014003700e00f5300120032004fb097009c
:101de000300290000404b200050032009002780036
:101df00003c2b300834a78000508e80006003700f4
:101e0000cfb097000002200063fb070000027800bb
:101e1000e10f420003003200bfb097008100e800ec
:101e2000b1b79f002fa99700e00f510011013200b8
:101e300008c3b300820678004fb697003c009000bc
:101e40000004b200040032001c007800084878004a
:101e5000000ee800050037008c0078000003200029
:101e60004dfb0700e10f400003003200bfb19700b7
:101e70008301e800b3b79f008d06e900efff3a0049
:101e8000adaf9f00fb0037002faa9700e00f520074
:101e9000170032006802670015003a0008c2b3005c
:101ea000afae97004fb697003c0090000004b20020
:101eb000040032001c00780008487800000ee8009a
:101ec000050037008c0078000002200032fb07007c
:101ed000e10f400003003200bfb297008502e80026
:101ee000b5b79f008d06e900efff3a00adaf9f0048
:101ef000e202670061036700e08f52001c003200bd
:101f0000cfb39700370290000404b2000a003200f9
:101f10000704780098037800b5c2b300e00f5300bf
:101f20000100320085c2e800854b7800cfb49700ed
:101f3000870ce8000a003700d5022000e00f5300ac
:101f400001003a008582e900cfb0970005007800d3
:101f500011fb070000027800e10f4200c5003200cb
:101f60003fb597000a05e800bab79f00c1003700e7
:101f7000e00f5300bf003200cfb597003b02900046
:101f80000404b200050032009b02780003c2b300d3
:101f9000834a7800850de80006003700cfb097002f
:101fa00000022000fcfa070000027800e10f420066
:101fb000b00032003fb097000000e800b0b79f00cb
:101fc000ac0037000e07e90000042000bfa897000e
:101fd000808f50008200320003003c00e08f5000f0
:101fe000080032008e003700000820003fa997004b
:101ff000800f510065003200000c2000800f51005e
:1020000087003a004370dd00cfa99700e08f5100b0
:102010002a003d0064812000000042003004be0020
:102020002005be00e8af9f00f9af9f008ab79f0070
:102030009bb79f000802be000a03be005fb0970076
:10204000efb097007fb197008fb997002cfc070085
:10205000c0779f000004fb00cfc4de0009057800b4
:102060008a0578006faa9700ffaa97000fb3970020
:102070009fb397000800be000a01be008cfc070059
:102080000203be000002be005fb09700efb09700f1
:102090007fb197008fb997000400500085805800e9
:1020a0000601590087815900d0b79f00e1b79f0012
:1020b000f2b79f0083bf9f0030003700df98970082
:1020c000e08f50001f0032005fb69700efb6970018
:1020d00062812000000041003004be002005be00e7
:1020e0000801be000c00be0061fb0700c0779f0026
:1020f0000000fb00cf80de000801be006cfb070083
:102100000002560081825e00a4a79f00b5a79f0031
:102110008002eb00c5a79f000003eb00d6a79f003d
:102120002fa49700bfa497004fa59700dfa59700a5
:10213000d8b79f00e9b79f00fab79f008bbf9f00f9
:102140000e00370069812000690178005fb59700b3
:10215000811f7800110009000285d800cf007800a7
:10216000a2002000811f7800110009000280d80021
:1021700001007800cf007800c0779f00cf759700ee
:102180000b43b000cb779f0025003700648b200005
:102190004f989700e00f500001003a00748c200027
:1021a0004270dd005fb49700efb497007fb59700f1
:1021b0008fbd9700800278008502e900050033009a
:1021c0008b05d1000a85d3008984d3000884d3000d
:1021d000f9ff37006f006400644078000f0037009b
:1021e0006370b9005fb49700efb497007fb59700b4
:1021f0008fbd9700000278000402e900050033005b
:102200008b05d1000a85d3008984d3000884d300cc
:10221000f9ff3700674064000043b000c0779f00bb
:10222000cfb29700350090000004b20007003200e2
:10223000150178004f70970000497800820ae80085
:10224000e04f500007003a00120037004f7397002c
:102250000600fb00cfb097004ffa0700e10f4000e7
:102260000c003200bfb397008703e800b7b79f00a8
:102270000800370070046700d89f9f008e04780024
:102280000902b200c99f9f000e057800caaf9f00e7
:102290006faf9700e00f57004aff3a004faf97002b
:1022a0006801670018003200afad9700e08f55005d
:1022b0001500340008c2b3008b0678003fb79700c2
:1022c0004fb697003c0090000004b20004003200ba
:1022d0001c00780008487800000ee8000500370070
:1022e0008c007800000220002bfa0700e10f40006c
:1022f000010032000e07e8008d06e900f1ff3a0008
:102300000e007800b0b79f00dfa8970091427800d8
:10231000c5779f00e0cf52003afc3a003fb09700eb
:102320004f0778004f06be004f05be004f04be00a9
:082330000f04b10000000600db
:020000040000fa
:10233800546900006d650000722000003120000023
:102348007365000074750000700d000000540000f3
:10235800696d0000657200002032000020730000e3
:1023680065740000757000000d00000054690000dd
:102378006d650000722000003320000073650000c6
:1023880074750000700d000000540000696d0000b5
:10239800657200002034000020730000657400009e
:1023a800757000000d000000546900006d650000a4
:1023b800722000003520000073650000747500006d
:1023c800700d000000540000696d00006572000087
:1023d8002032000033280000333200002062000061
:1023e80069740000292000007365000074750000fe
:1023f800700d000000540000696d00006572000057
:10240800203400003528000033320000206200002c
:1024180069740000292000007365000074750000cd
:10242800700d0000000000003d3d00003d3d000033
:102438003d3d00003d3d00003d3d00003d3d0000ac
:102448003d3d00003d3d00003d3d00003d3d00009c
:102458003d3d00003d3d00003d3d00003d3d00008c
:102468003d3d00003d3d00003d3d00003d3d00007c
:102478003d3d00003d3d00003d3d00000d000000d9
:1024880055410000525400002053000065740000bc
:10249800757000000d000000554100005254000006
:1024a800322000005365000074750000700d0000b4
:1024b80000000000494e0000543000002053000086
:1024c80065740000757000000d000000494e0000a2
:1024d800543100002053000065740000757000003e
:1024e8000d000000494e0000543200002053000047
:1024f80065740000757000000d0000005069000050
:102508006e73000020530000657500007020000005
:102518005365000074750000700d00000000000095
:10252800253000003258000000540000686900009f
:102538007320000069730000207400006f20000001
:102548006265000020730000656e0000740d0000d5
:102558000a250000730d00000a0000002573000022
:102568000d0a00005761000073200000526500004a
:102578006369000076650000640d00000a00000031
:10258800546900006d65000072730000205300005c
:10259800657400007570000020460000696e000038
:1025a8006973000068650000640d000000430000c6
:1025b8006869000070200000536500007570000015
:1025c80020460000696e000069730000686500001d
:1025d800640d000000000000527500006e2000002d
:1025e800666f000072200000796f000075720000ad
:1025f800206c000069660000652e00002e2e000089
:102608000d00000053500000493100002053000025
:0c26180065740000757000000d000000eb
:020000040000fa
:102624008c00fa0030879800418798005287980000
:102634000040eb00604798000000eb00000f7800ba
:102644000f0037001e007800be809000008040001c
:10265400104078008080fb000e80e800811f780025
:1026640041292900811f78002df90700e4875700cc
:102674008e80e800660047001ef907001e0fe80080
:102684004e8090009e007800808f5000edff350052
:1026940066004700801f780090292900801f780079
:1026a40035f90700e4875700110020005e80900090
:1026b400320007000000eb00204088003e809000bc
:1026c400004088004e809000104088008540a9009a
:1026d4009540a8008540a8000000eb00000f78009a
:1026e4000000000020408000e30f5000fdff3a008e
:1026f4008000eb005e809000200007000040eb00ab
:10270400604798000000eb00000f78000f003700ce
:102714001e007800be8090000080400010407800c9
:102724008080fb000e80e800811f78004129290089
:10273400811f7800faf80700e48757008e80e800cc
:1027440066004700ebf807001e0fe8004e8090007b
:102754009e007800808f5000edff35006600470032
:10276400801f7800202b2900801f780002f90700c1
:10277400e48757000080fa00000006000400fa0015
:10278400000f7800110798001e007800e00f500039
:102794000d003a0010c0b3009e009000e08f50007e
:1027a400010032000040eb000080fb00610060008b
:1027b4004500dd0062168000f1fd2f0081006100fc
:1027c40000807000601688000080fa000000060097
:1027d400809fbe003400f80000002000a0018800a3
:1027e4000000fa0020408000e00f500009003a0089
:1027f4001000200020408800401280000040780033
:1028040006e8b7000000eb00404088000000eb0041
:10281400504088000012800061006000e00f50000a
:10282400130032008540a900014080004040800030
:10283400808040004012800000407800804878008a
:10284400404080000000e8004040880011408000c3
:1028540040408000808f500005003a009540a90058
:1028640030002000204088000000eb000040880079
:102874000012800062006000e00f500013003a0074
:1028840020408000e20f5000100032008540a90073
:1028940001408000504080000080400010407800db
:1028a4000080fb0040128800504080000000e800d7
:1028b400504088001140800050408000808f5000bc
:1028c40002003a0020002000204088000080fa0026
:0c28d4003400f9004f00be000040060078
:020000040000fa
:1028e0000c0800000a0000000000000000080000c2
:1028f0000c000000000000000609000006000000b7
:1029000000000000e00800002600000002000000b7
:10291000070900000007090009000000000200008c
:1029200009090000000909000e0201000000000072
:10293000000000000000000006020200000000008d
:10294000e00800000c090000020000000200000086
:1029500001000000b60800002a000000020000008c
:1029600030313200333435003637380039414200d7
:1029700043444500460030003132330034353600e0
:1029800037383900616263006465660000286e00b4
:10299000756c6c002900000016080000a000000003
:1029a00002000000010000000000000000000a001a
:1029b00000000000000000000064000000000000b3
:1029c00000000000e803000000000000000010000c
:1029d000270000000000000000a0860001000000a9
:1029e0000000000040420f000000000000008000d6
:1029f00096980000000000000000e100f5050000ce
:102a00000000000000ca9a003b0000000000000027
:102a1000e40b5400020000000000e80076481700b4
:102a2000000000000010a500d4e800000000000035
:102a3000a0724e0018090000000040007a10f30058
:102a40005a0000000080c600a47e8d000300000034
:102a500000c16f00f2862300000000008a5d78004c
:102a60004563010000006400a7b3b600e00d00005c
:102a700000e889000423c7008a000000000000006d
:020000040000fa
:102a80000000fa007189290090fb25008ff70700ec
:102a900030ff2f001df70700c01929000cf80700b0
:102aa0000080fa00000006000000fa007189290089
:102ab00050fb250089f7070030ff2f0021f70700a2
:102ac000b01a290002f807000080fa000000060092
:102ad0000000fa0071892900d0fb25008cf707005f
:102ae00030ff2f0038f70700a01b2900f8f7070078
:102af0000080fa00000006000000fa007189290039
:102b000050fb250086f7070030ff2f003ef7070037
:102b1000901c2900eef707000080fa000000060074
:102b20000000fa0071892900d0fb250089f7070011
:102b300020ff2f0055f70700801d2900e4f707004c
:102b40000080fa00000006000000fa0070408000db
:102b5000814080000001be00d0fb250064f7070023
:102b600020ff2f0008f70700701e2900d8f7070084
:102b70000080fa00000006000000fa000081eb006f
:102b80008081eb00d0fb25006af7070020ff2f00b3
:102b90002ef70700f01f2900cdf707000080fa008c
:102ba000000006004a00fa003027980041279800ec
:102bb00018000700c2000700002f2900c4f7070013
:102bc0000000eb00000f78000d003700a0cab30032
:102bd0002047980050c5b300304798000040eb00f4
:102be0004047980000c0eb00504798000e80e80076
:102bf0000001eb00410020008afe07001e0fe800e4
:102c00001e007800e40f5000f0ff340000000000c8
:102c1000fbff37000000fa0090022000303a8800e5
:102c2000213a8000f0f32f0000806000203a8800f5
:102c3000213a800000fe2f0000806000203a8800ca
:102c40001200200080072000a1092000337420001a
:102c5000804978008149780082497800120020007c
:102c60006004200071052000237420008049780052
:102c7000814978008249780000000000113a800004
:102c8000000027008080600000002100808f50003d
:102c9000faff3a0000000000113a80000002200014
:102ca00000806000e00f5000fbff32000080fa005f
:102cb000000006000000fa0002042000d1552300a5
:102cc00000c02c006bf7070010f22f0025f707005b
:102cd000c9c2a900c9e2a8007136800000fe2f0019
:102ce000008060003000b30070368800213580001d
:102cf00000fe2f0000806000f000b3002035880047
:102d00008021290072f707004024290070f707008e
:102d10000080fa00000006000000fa0002412000d6
:102d2000d155230000c02c0056f70700a0f12f005a
:102d30002ef70700c902a900c942a8004136800049
:102d400000fe2f00008060005000b3004036880075
:102d50003135800000fe2f0000806000a000b3002d
:102d6000303588000025290059f707000080fa0057
:102d7000000006000000fa008400a9008200a900fb
:102d80009400a800e025290051f707000080fa0010
:102d9000000006000000fa008680a9008220a90039
:102da000c8a2a80001348000f00f2e0080806000cf
:102db0000050200000807000003488009680a80039
:102dc000a026290042f707000080fa000000060054
:102dd0000000fa0087a0a9008240a900c8c2a8008c
:102de0001134800000fe2f00008060006000b300fe
:102df0001034880097a0a8006027290034f7070046
:102e00000080fa00000006000000fa00f0e3210054
:102e1000601988000000eb00401688000000eb00fd
:102e2000001688002028290029f707000080fa00f2
:102e3000000006000000fa00f2fb2d00d1ff230085
:102e400020032e002df60700d0ff2f001af60700f2
:102e50004136800000fe2f00008060000030a0009e
:102e60004036880031368000f00f2e0080806000f0
:102e700000702000008070003036880041358000ee
:102e800000fe2f00008060006000b3004035880025
:102e9000c902a900c8e2a900c8c2a8006030290080
:102ea0000bf707000080fa00000006000000fa009f
:102eb000402c290006f707000080fa0000000600f9
:102ec0000000fa007bff0700f8ff0700ceff0700b5
:102ed000d8ff0700b02d2900fdf607000080fa009a
:102ee000000006000000fa000000eb0060408800cf
:102ef0000080eb008080eb007040880081408800fb
:102f00000080eb008080eb0090408800a1408800aa
:082f10000080fa000000060039
:020000040000fa
:0200000401f009
:04000000ffff0000fe
:020000040000fa
:0200000401f009
:04000400ffff0000fa
:020000040000fa
:0200000401f009
:04000800ffff0000f6
:020000040000fa
:0200000401f009
:04000c0078ff000079
:020000040000fa
:0200000401f009
:040010007bff000072
:020000040000fa
:0200000401f009
:040014006dff00007c
:020000040000fa
:0200000401f009
:04001800ffff0000e6
:020000040000fa
:0200000401f009
:04001c00dfff000002
:00000001FF
