:020000040000fa
:080000000002040000000000f2
:020000040000fa
:10000800580300005803000058030000580300007c
:10001800580300005803000058030000580300006c
:100028001c03000058030000580300009002000061
:10003800580300005803000058030000a402000001
:10004800b80200005803000058030000080300002d
:10005800580300005803000058030000580300002c
:10006800580300005803000058030000580300001c
:100078003003000058030000580300005803000034
:10008800580300005803000058030000cc02000089
:10009800e002000044030000f402000058030000de
:1000a80058030000580300005803000058030000dc
:1000b80058030000580300005803000058030000cc
:1000c80058030000580300005803000058030000bc
:1000d80058030000580300005803000058030000ac
:1000e800580300005803000058030000580300009c
:1000f800580300005803000058030000580300008c
:10010800580300005803000058030000580300007b
:10011800580300005803000058030000580300006b
:10012800580300005803000058030000580300005b
:10013800580300005803000058030000580300004b
:10014800580300005803000058030000580300003b
:10015800580300005803000058030000580300002b
:10016800580300005803000058030000580300001b
:10017800580300005803000058030000580300000b
:1001880058030000580300005803000058030000fb
:1001980058030000580300005803000058030000eb
:1001a80058030000580300005803000058030000db
:1001b80058030000580300005803000058030000cb
:1001c80058030000580300005803000058030000bb
:1001d80058030000580300005803000058030000ab
:1001e800580300005803000058030000580300009b
:0801f800580300005803000049
:020000040000fa
:10020800580300005803000058030000580300007a
:10021800580300005803000058030000580300006a
:100228001c0300005803000058030000900200005f
:10023800580300005803000058030000a4020000ff
:10024800b80200005803000058030000080300002b
:10025800580300005803000058030000580300002a
:10026800580300005803000058030000580300001a
:100278003003000058030000580300005803000032
:10028800580300005803000058030000cc02000087
:10029800e002000044030000f402000058030000dc
:1002a80058030000580300005803000058030000da
:1002b80058030000580300005803000058030000ca
:1002c80058030000580300005803000058030000ba
:1002d80058030000580300005803000058030000aa
:1002e800580300005803000058030000580300009a
:1002f800580300005803000058030000580300008a
:100308005803000058030000580300005803000079
:100318005803000058030000580300005803000069
:100328005803000058030000580300005803000059
:100338005803000058030000580300005803000049
:100348005803000058030000580300005803000039
:100358005803000058030000580300005803000029
:100368005803000058030000580300005803000019
:100378005803000058030000580300005803000009
:1003880058030000580300005803000058030000f9
:1003980058030000580300005803000058030000e9
:1003a80058030000580300005803000058030000d9
:1003b80058030000580300005803000058030000c9
:1003c80058030000580300005803000058030000b9
:1003d80058030000580300005803000058030000a9
:1003e8005803000058030000580300005803000099
:0803f800580300005803000047
:020000040000fa
:100400008f8320000e7f22000e0188000000000074
:100410000c000700209e20000100200011000700b2
:10042000000020000000e000020032000000020096
:1004300000000000c0080200000000000040da00d8
:100440000000fe004440a900601420000000e0000d
:100450000300320000002000a00188004440a800f2
:100460000000060091018800800078000000eb0089
:1004700015003700e280400032a0b4009101ba00bc
:10048000e280400032a0b4009102ba00e280400055
:1004900032a0b4000002eb00472bde00f507b200eb
:1004a000602ce10004003a000059eb008301e900f0
:1004b000fdff3e00040037006128e100010032002a
:1004c0000082eb00040007001101ba000200e00006
:1004d000e8ff3a00000006003159ba008301e90044
:1004e0000c0032002159ba008301e90008003200f3
:1004f0000400e00003003a00e280400032a0b400b3
:10050000f5ff370011d9ba008301e900faff3a007c
:100510008100e800e180400032a0b4000000060045
:100520003400f800881f780008002000a801880027
:100530004f0478000000fa008460a9000080fa00ef
:100540003400f900004006003400f800881f7800ed
:1005500008002000a80188004f0478000000fa007d
:1005600084e0a9000080fa003400f9000040060091
:100570003400f800881f780008002000a8018800d7
:100580004f0478000000fa008500a9000080fa00fe
:100590003400f900004006003400f800881f78009d
:1005a00008002000a80188004f0478000000fa002d
:1005b0008760a9000080fa003400f90000400600be
:1005c0003400f800881f780008002000a801880087
:1005d0004f0478000000fa008780a9000080fa002c
:1005e0003400f900004006003400f800881f78004d
:1005f00008002000a80188004f0478000000fa00dd
:1006000087c0a9000080fa003400f900004006000d
:100610003400f800881f780008002000a801880036
:100620004f0478000000fa008560a9000080fa00fd
:100630003400f900004006003400f800881f7800fc
:1006400008002000a80188004f0478000000fa008c
:100650008400a9000080fa003400f9000040060080
:100660003400f800881f780008002000a8018800e6
:100670004f0478000000fa008680a9000080fa008c
:100680003400f900004006003400f800881f7800ac
:1006900008002000a80188004f0478000000fa003c
:1006a00087a0a9000080fa003400f900004006008d
:1006b0000040da000000fe008540a90067016000ec
:1006c0004811dd0043058000f18f2f00818061001b
:1006d000828070004105880068006000c300de0071
:1006e000e1806000ca08dd00a004800000a0a10035
:1006f00001007000a00488000000060010128800ad
:100700002112880002128800000006008460a900ff
:10071000670160004c11dd0023058000f1ff280017
:10072000818061008280700021058800680060007f
:10073000a10480000130a10080807000a104880025
:100740000000060084e0a900670160004c11dd0094
:1007500033058000f1ff28008180610082807000f5
:100760003105880068006000c300de00e1806000a1
:10077000c708dd00a00480000070a1000100700027
:10078000a0048800000006008500a9006701600041
:100790004305800081ff2f0081806100828070000e
:1007a0004105880068006000c300de00e180600051
:1007b000c808dd00a00480000080a10001007000d6
:1007c000a0048800000006008500a9006701600001
:1007d0004305800081ff2f008180610082807000ce
:1007e0004105880068006000c300de00e180600011
:1007f000c808dd00a00480000080a1000100700096
:10080000a0048800000006008760a900670160005e
:100810004c11dd0083058000f1ff2800818061001c
:10082000828070008105880068006000c300de00df
:10083000e1806000cb08dd00b004800000b0a100c2
:1008400001007000b0048800000006008780a90045
:10085000670160009305800081ff2f0081806100a7
:10086000828070009105880068006000c300de008f
:10087000e1806000cc08dd00b004800000c0a10071
:1008800001007000b0048800000006009780a900f5
:10089000670160009305800081ff2f008180610067
:1008a000828070009105880068006000c300de004f
:1008b000e1806000cc08dd00b004800000c0a10031
:1008c00001007000b0048800000006000021ef0065
:1008d0001108880020088800000006000621ef00ab
:1008e00061088800800888001061a90000000600e7
:1008f0008000eb00310888005108880062088800f9
:1009000073088800800888001061a80000000600b5
:100910000a21ef0071088800900888000000060096
:100920001421ef00d1088800f00888001e61a9009a
:10093000000006008000eb00a1088800c1088800c4
:10094000d2088800e3088800f00888001e61a8002b
:10095000000006001821ef00e10888000009880067
:10096000000006008560a9008580a900670160007d
:100970004c11dd0043058000f1ff280081806100fb
:100980008280700041058800000178000207b200f3
:100990004411de005305800081ff2f00818061003b
:1009a0008280700051058800680160004311de00fc
:1009b000610161004b11dd00a104800001b0a100c4
:1009c00082807000a10488000008b2004700de00a9
:1009d000610060004c00dd00a104800001c0a100a6
:1009e00080807000a10488000000060087c0a90074
:1009f00087e0a900670160004811dd0093058000d1
:100a0000f18f2f0081806100828070009105880045
:100a1000000178000207b2004811dd009305800054
:100a2000f1ff2800818061008280700091058800bc
:100a3000680160004311de00610161004e11dd00bc
:100a4000b104800001e0a10082807000b104880040
:100a50000008b2004700de00610060004f00dd00ca
:100a6000b104800001f0a10080807000b104880012
:100a70000000060042118800001188001111880052
:100a800000000600c21188008011880091118800c2
:100a900000000600889fbe000004be00060037006c
:100aa0000000fb008900780013000700e10f400000
:100ab000050032000804e80018407800e04f5000bc
:100ac000f7ff3a000000eb004f04be0000000600f4
:100ad000881f780061812000eeff07000004780085
:100ae00061812000a00020000300070008007800ba
:100af0004f04780000000600889fbe0001047800c3
:100b0000b8009000628160008084eb003c003200fd
:100b1000810178000320b2001801900002003a0021
:100b2000e00f510036003a000190a0003104980017
:100b300080047800f90fb200e00f510002003a0083
:100b400028009000000c7800ea8f540006003a005c
:100b5000010078000008b20003003a008800780025
:100b6000d0002000e4ff070018009000d80090009b
:100b7000810f50000b0032000000e80010049800c4
:100b80001800780009487800000ce80010c0b30095
:100b90000183200080487800ea8f540018003a0052
:100ba000050037008800780009407800170007002a
:100bb0008004780012003700380090000010b20066
:100bc0000f00320018019000a8009000480090002b
:100bd0005000070098009000810f50000400320080
:100be000380090000003b300300498008084eb00cc
:100bf0000000eb001004980028009000000c780022
:100c0000090078004f04be00000006000200fa0050
:100c1000889fbe00a0ff9f0001047800380090006c
:100c2000800078000104b20033003a00e200600066
:100c300005003a000003b300300498001104980046
:100c40000080eb002e003700d8049000e08f5400a5
:100c500006003a0012002000e6805700480090008d
:100c60002c0007001904980023003700a80090000a
:100c7000e08f500008003a003183200021049800e2
:100c8000010c780021002000510498001104980004
:100c90000030a0003004980018019000a8009000d7
:100ca000480090001b000700280090008080eb00a7
:100cb00011049800aff8970001487800000ce80094
:100cc0002ff89700ea4f50000b003a0038009000d0
:100cd0000010b2000800320018019000a800900037
:100ce000480090000b0007000000eb001004980083
:100cf000a8009000010c7800aff897000100fb00fd
:100d00004f04be000080fa000000060000c0da00b8
:100d1000000006000a00fa00e20f500021003e0029
:100d2000b0418000e10f5000060032008523200012
:100d3000442320002323200000232000e08f5200c2
:100d400004003a00852220004422200023222000b3
:100d500000222000060028009003630002003a00f1
:100d6000870a78001008730000402000130060001c
:100d700001003a0013a0a00002007800060037002e
:100d8000930278000510b200fdff3200b102fb00b3
:100d9000050a78000000e900e00f5000f8ff3a0073
:100da0000800370033002000b3bf9f00c0bf9f0082
:100db000d1bf9f00e2bf9f006a805700d3ff0700aa
:100dc0006fb99700020078000080fa00000006006a
:020000040000fa
:100dd000546900006d6500007220000031200000a1
:100de0007365000074750000700d00000054000071
:100df000696d000065720000203200002073000061
:100e000065740000757000000d000000546900005a
:100e10006d65000072200000332000007365000043
:100e200074750000700d000000540000696d000032
:100e3000657200002034000020730000657400001b
:100e4000757000000d000000546900006d65000021
:100e500072200000352000007365000074750000ea
:100e6000700d000000540000696d00006572000004
:100e700020320000332800003332000020620000de
:100e8000697400002920000073650000747500007b
:100e9000700d000000540000696d000065720000d4
:100ea00020340000352800003332000020620000aa
:100eb000697400002920000073650000747500004b
:100ec000700d0000000000003d3d00003d3d0000b1
:100ed0003d3d00003d3d00003d3d00003d3d00002a
:100ee0003d3d00003d3d00003d3d00003d3d00001a
:100ef0003d3d00003d3d00003d3d00003d3d00000a
:100f00003d3d00003d3d00003d3d00003d3d0000f9
:100f10003d3d00003d3d00003d3d00000d00000056
:100f20005541000052540000205300006574000039
:100f3000757000000d000000554100005254000083
:100f4000322000005365000074750000700d000031
:100f500000000000494e0000543000002053000003
:100f600065740000757000000d000000494e00001f
:100f700054310000205300006574000075700000bb
:100f80000d000000494e00005432000020530000c4
:100f900065740000757000000d00000050690000cd
:100fa0006e73000020530000657500007020000083
:100fb0005365000074750000700d00000000000013
:100fc000546900006d65000072730000205300003a
:100fd000657400007570000020460000696e000016
:100fe0006973000068650000640d000000430000a4
:100ff00068690000702000005365000075700000f3
:1010000020460000696e00006973000068650000fa
:10101000640d000000000000527500006e2000000a
:10102000666f000072200000796f0000757200008a
:10103000206c000069660000652e00002e2e000066
:101040000d00000053500000493100002053000003
:0c10500065740000757000000d000000c9
:020000040000fa
:10105c000000fa007189290090fb250018fe07009a
:10106c0030ff2f00a6fd0700806e280095fe0700bc
:10107c000080fa00000006000000fa0071892900c7
:10108c0050fb250012fe070030ff2f00aafd0700c1
:10109c00706f28008bfe07000080fa00000006002d
:1010ac000000fa0071892900d0fb250015fe07000d
:1010bc0030ff2f00c1fd07006070280081fe070083
:1010cc000080fa00000006000000fa007189290077
:1010dc0050fb25000ffe070030ff2f00c7fd070057
:1010ec005071280077fe07000080fa00000006000f
:1010fc000000fa0071892900d0fb250012fe0700c0
:10110c0020ff2f00defd0700407228006dfe070057
:10111c000080fa00000006000000fa001040800079
:10112c00214080000001be00d0fb2500edfd070032
:10113c0020ff2f0091fd07003073280061fe07008f
:10114c000080fa00000006000000fa000081eb00ad
:10115c008081eb00d0fb2500f3fd070020ff2f0062
:10116c00b7fd0700b074280056fe07000080fa0097
:10117c00000006000400fa00000f78001107980028
:10118c0005000700ac000700c08028004dfe0700da
:10119c0000000000feff37000000fa009002200063
:1011ac00303a8800213a8000f0f32f000080600074
:1011bc00203a8800213a800000fe2f000080600059
:1011cc00203a88001200200080072000a10920008e
:1011dc003374200080497800814978008249780076
:1011ec0012002000600420007105200023742000f0
:1011fc00804978008149780082497800000000001d
:10120c00113a80000000270080806000000021005f
:10121c00808f5000faff3a0000000000113a800065
:10122c000002200000806000e00f5000fbff320045
:10123c000080fa00000006000000fa000204200002
:10124c00d155230000c02c0007fe070010f22f0020
:10125c00c1fd0700c9c2a900c9e2a800713680000f
:10126c0000fe2f00008060003000b3007036880054
:10127c002135800000fe2f0000806000f000b300dc
:10128c0020358800407628000efe070000792800e3
:10129c000cfe07000080fa00000006000000fa00b7
:1012ac0002412000d155230000c02c00f2fd0700a4
:1012bc00a0f12f00cafd0700c902a900c942a8006d
:1012cc004136800000fe2f00008060005000b3000b
:1012dc00403688003135800000fe2f000080600011
:1012ec00a000b30030358800c0792800f5fd070058
:1012fc000080fa00000006000000fa008400a9003b
:10130c008200a9009400a800a07a2800edfd070037
:10131c000080fa00000006000000fa008680a90098
:10132c008220a900c8a2a80001348000f00f2e0072
:10133c008080600000502000008070000034880025
:10134c009680a800607b2800defd07000080fa0074
:10135c00000006000000fa0087a0a9008240a90046
:10136c00c8c2a8001134800000fe2f00008060006d
:10137c006000b3001034880097a0a800207c2800df
:10138c00d0fd07000080fa00000006000000fa0003
:10139c00f0e32100601988000000eb004016880083
:1013ac000000eb0000168800e07c2800c5fd07005b
:0813bc000080fa0000000600a9
:020000040000fa
:1013c400000800000a0000000000000030080000cf
:1013d40006000000000000000a08000026000000cb
:1013e400020000003108000000310800090000007c
:1013f4000002000033080000003308000e02010060
:1014040000000000000000000000000006020200ce
:10141400000000000a080000360800000200000076
:0c142400020000000100000000000000b9
:020000040000fa
:101430000000fa00007e2800a5fd07000080fa00e9
:10144000000006000000fa007eff0700f8ff07001a
:10145000d1ff070011000700707f28009cfd0700e6
:101460000080fa00000006000000fa000000eb0017
:10147000004088000080eb008080eb001040880076
:10148000214088000080eb008080eb003040880025
:10149000414088000080fa00000006000000fa00c9
:1014a000f2fb2d0001132300f0ff2e0093fc070038
:1014b00050ff2f0080fc07002082280084fd0700d9
:0814c0000080fa0000000600a4
:020000040000fa
:0200000401f009
:04000000ffff0000fe
:020000040000fa
:0200000401f009
:04000400ffff0000fa
:020000040000fa
:0200000401f009
:04000800ffff0000f6
:020000040000fa
:0200000401f009
:04000c0078ff000079
:020000040000fa
:0200000401f009
:040010007bff000072
:020000040000fa
:0200000401f009
:040014006dff00007c
:020000040000fa
:0200000401f009
:04001800ffff0000e6
:020000040000fa
:0200000401f009
:04001c00dfff000002
:00000001FF
